:020000000329D2
:0E000600213083120313FD00FD0B07280800B4
:100014000F3083120313FC004730FD00FD0B102842
:0A002400FC0B10280000000008008B
:06002E00000000000800C4
:1000340083120313BA1B20288713212887173A1B1E
:100044002528071326280717BA1A2A2887122B28C7
:1000540087163A1A2F28071230280716341834281E
:10006400071535280711871517208711BA193C2859
:1000740087133D2887173A19412807134228071781
:10008400BA1846288712472887163A184B280712A9
:100094004C280716341850280715512807118715BE
:1000A40017208711341C58280A20592803200800D7
:0E00B4008312031333088A003208820008000A
:1000C2008312031334103908BA001A2034140800BA
:1000D2008316031387110711071287120713871359
:1000E20083128711071187130713871207120A2039
:1000F2000A200A20871607168715172087110A205B
:100102008715172087110A208715172087110A20C3
:1001120007128715172087110A20871517208711C4
:10012200871287178715172087110A20871307164A
:1001320087151720871107128715172087110A20A4
:1001420087151720871107168715172087110A2090
:1001520007128715172087118717071787160716A3
:0C0162008715172087110A2034140800AC
:10016E00C928803083120313B500DC28C030B500D7
:10017E00DC289430B500DC28D430B500DC28803083
:10018E00B500DC28831203133508013A0319B82889
:10019E003508023A0319BD283508033A0319C02859
:1001AE003508043A0319C328C6283603F00035086B
:1001BE00F0077008B5007008BA001A203410B801A4
:1001CE0038083707840000080319F5283808370760
:1001DE0084000008B9006120B80AE728341408002A
:1001EE005A208A110A128000840AB20A0319B30A2D
:0801FE00F003031DF7280800BF
:100206004D3083120313A0006530A1007230A200A6
:100216006830A3006130A4006230A5006130A600FA
:100226002030A7004430A8007530A9006E30AA001F
:100236007930AB006130AC00AD014230AE007930B0
:10024600AF006530B000B10169200C30BA001A2049
:100256000130BA001A200130B5000130B600203056
:10026600B700B7200230B5000130B6002E30B70017
:04027600B7203C2948
:04400E00F22F000786
:00000001FF
